S01700004763634170706C69636174696F6E322E737265635A
S11300000C9430000C9435010C9468010C944D0050
S11300100C944D000C944D000C944D000C944D0028
S11300200C944D000C944D000C944D000C944D0018
S11300300C944D000C944D000C944D000C944D0008
S11300400C944D000C944D000C944D000C944D00F8
S11300500C944D006364696E6F70737578585B001F
S113006011241FBECFE5D4E0DEBFCDBF11E0A0E672
S1130070B0E0E2E7FEE002C005900D92A034B107C3
S1130080D9F722E0A0E4B1E001C01D92AF39B20774
S1130090E1F70E946C030C9437070C940000979AC4
S11300A000C097980895CF93DF93D82F662311F05B
S11300B0959A01C0959896988AB38F608ABBCBB302
S11300C0C07F8D2F82958F708C2B8BBB0E944F002D
S11300D0DF70DC2BDBBB0E944F00CF60CBBBDF911A
S11300E0CF910895882311F0959A01C09598969A16
S11300F08AB3807F8ABB979A00C099B3979800C04F
S1130100979A00C029B32F70892F8295807F979882
S1130110822B089580E00E9472008823DCF384E03F
S113012090E00197F1F780E00E9472000895CF9368
S1130130C82F0E948A0060E08C2F0E945300CF9148
S11301400895611104C080580E9497000895805456
S11301500E949700089581E00E9497000895CF932C
S1130160C82F0E948A00CA3049F4803410F080E01D
S113017001C080E480580E94970004C061E08C2F85
S11301800E945300CF910895CF93DF93EC01219601
S1130190FC018081882329F00E94AF00899181119C
S11301A0FBCFDF91CF9108951F93CF93DF93182F47
S11301B08AB38F608ABB8D9A8E9A8F9A80E09DE76E
S11301C00197F1F7D99AD89A0E944F0080E097E2FC
S11301D00197F1F70E944F00C0E8D0E0CE010197EB
S11301E0F1F70E944F00CE010197F1F7D8980E94D1
S11301F04F002197F1F788E20E94970088E00E945F
S113020097000E94AB0086E00E949700812F0E9415
S11302109700DF91CF911F91089588E18AB980B545
S1130220866880BD83E389B910BC08955F9BFECFC7
S11302308CB190E008958BB78F7B8BBF8BB78F7792
S11302408BBF78942FEF81EE94E021508040904052
S1130250E1F700C0000080EC8ABF8BB780648BBFDD
S11302608BB780688BBFF89408951F920F920FB6D6
S11302700F9211242F933F934F935F936F937F9328
S11302808F939F93AF93BF93EF93FF938091450216
S1130290813059F4809160008F5F873018F4809327
S11302A0600003C081E0809360000E941B01FF9105
S11302B0EF91BF91AF919F918F917F916F915F91DA
S11302C04F913F912F910F900FBE0F901F90189553
S11302D01F920F920FB60F9211242F933F934F93B7
S11302E05F936F937F938F939F93AF93BF93EF939A
S11302F0FF9380914502813051F4809160008150D8
S113030019F08093600003C086E0809360000E942F
S11303101B01FF91EF91BF91AF919F918F917F91BD
S11303206F915F914F913F912F910F900FBE0F905E
S11303301F9018950E941601809342018A30A1F003
S11303402091430130914401F901EB5BFE4F80831E
S11303502F5F3F4F30934401209343010E941601C5
S1130360809342018A3061F7109244011092430154
S1130370089561E670E085E491E00E94B203892B60
S1130380D9F180E992E09F938F939F938F932AE40E
S113039032E03F932F939F938F9388E792E09F934C
S11303A08F9380E491E09F938F9388E492E09F93EE
S11303B08F938AE592E09F938F9386E492E09F93D4
S11303C08F938BE792E09F938F9389E692E09F93BC
S11303D08F9388E690E09F938F9385E491E09F93B9
S11303E08F930E94CC038DB79EB74A960FB6F894AC
S11303F09EBF0FBE8DBF089561EB70E085E491E070
S11304000E94B203892B71F180E992E09F938F934C
S11304109F938F939F938F9320E532E03F932F9385
S11304202AE832E03F932F939F938F939F938F9368
S11304309F938F939F938F939F938F939F938F9368
S113044088EB90E09F938F9385E491E09F938F9343
S11304500E94CC038DB79EB74A960FB6F8949EBF00
S11304600FBE8DBF089580914001811109C0109283
S113047045020E94AB0081E091E00E94C40008950F
S113048081E0809345020895CF93DF93CDB7DEB723
S113049060970FB6F894DEBF0FBECDBFE9E6F2E079
S11304A08081898381818A838AE38B8392819C837F
S11304B093819D838E8384818F83858188878EE257
S11304C0898787818A8780858B8781858C871D862C
S11304D00E94AB0060E080E00E94A10081E191E015
S11304E00E94C40061E080E00E94A100CE01019658
S11304F00E94C40060960FB6F894DEBF0FBECDBF55
S1130500DF91CF9108951F93CF93DF93CDB7DEB7DB
S1130510A0970FB6F894DEBF0FBECDBFEBE7F2E0B5
S11305208081898381818A831FED1B8382818C83EF
S113053083818D8384818E8385818F83868188875F
S11305408781898780858A8781858B871C860E941D
S1130550AB0060E080E00E94A100CE0101960E9401
S1130560C40060E08CE00E94A10082E20E94AF001F
S113057060E08EE00E94A10086E492E00E94C40044
S1130580EAE5F2E08181898B82818A8B1B8B8381EE
S11305908C8B84818D8B85818E8B86818F8B8781DB
S11305A0888F8085898F81858A8F82858B8F1C8E29
S11305B061E080E00E94A100CE0141960E94C40047
S11305C061E08CE00E94A10082E20E94AF0061E041
S11305D08EE00E94A10088E492E00E94C400A096EC
S11305E00FB6F894DEBF0FBECDBFDF91CF911F9140
S11305F008950E94AB0060E080E00E94A1008DE1BC
S113060091E00E94C40061E080E00E94A1008AE4BD
S113061092E00E94C40061E08FE00E94A10084E2A5
S113062091E00E94C40008950E94AB0060E080E065
S11306300E94A10086E291E00E94C40060E085E08F
S11306400E94A10088E792E00E94C40061E080E07B
S11306500E94A1008AE291E00E94C40061E085E06A
S11306600E94A10080E491E00E94C40008950E94C9
S1130670AB0060E080E00E94A1008EE291E00E9465
S1130680C40061E080E00E94A1008AE892E00E9438
S1130690C40061E08BE00E94A10085E391E00E9428
S11306A0C40008950E94AB0060E080E00E94A100B5
S11306B08BE391E00E94C40061E080E00E94A1000D
S11306C080E592E00E94C40061E08FE00E94A100F6
S11306D08FED0E94AF0008958FE088BB17BA80E1C8
S11306E081BB81E28FBD8AE08EBD2CE330E039BD51
S11306F028BD85BF80EC8BBF8CE00E94D4000E9493
S1130700AB0060E080E00E94A1000E940D0178949B
S11307100E949A010E94B9010E943302809145020D
S11307208130B1F780916000813019F40E94440255
S1130730EFCF823019F40E948302EACF833019F498
S11307400E94F902E5CF843019F40E943703E0CF08
S1130750853019F40E945203DBCF8630C9F60E941B
S11307601403D6CFFB0151915523A9F0BF01DC013D
S11307704D9145174111E1F759F4CD010190002045
S113078049F04D9140154111C9F3FB014111EFCFDF
S113079081E090E001970895AEE0B0E0E2EDF3E08F
S11307A00C94100785E08C838B899C899A838983B8
S11307B0AE01495E5F4F6D897E89CE0101960E942C
S11307C081052E96E2E00C942C0720FD09C0FC0163
S11307D023FD05C022FF02C07383628351834083DB
S11307E0089544FD17C046FD17C0AB01BC01DA01F2
S11307F0FB01AA0FBB1FEE1FFF1F1094D1F74A0F76
S11308005B1F6E1F7F1FCB01BA01660F771F881F06
S1130810991F09C033E001C034E0660F771F881FB9
S1130820991F3150D1F7620F711D811D911D0895DB
S11308300F931F93CF93DF938C01C8010E94A606E8
S1130840EC0197FD08C00E949206892BB1F7B8010C
S1130850CE010E94E406CE01DF91CF911F910F914A
S113086008958F929F92AF92BF92EF92FF920F934F
S11308701F93CF93DF938C01D62F7A01B22E0E945F
S1130880A6069C0133272B32310531F02D32310578
S113089061F48B2D8068B82ED15011F480E068C0CB
S11308A0C8010E94A60697FDF9CFCB2DCD7F2B2D35
S11308B0207309F58033F9F4AA24AA94AD0E09F43F
S11308C043C0C8010E94A60697FD3EC09C012F7D2F
S11308D033272835310549F4C264D250A9F1C8013F
S11308E00E94A60697FF07C02FC0B6FE02C0C260D2
S11308F001C0C261DA2D812C912C540120ED280F06
S1130900283080F0C4FF04C0B8010E94E40619C076
S11309102A3040F0C6FFF8CF2F7D3FEE320F36303D
S113092098F727504C2FC501B4010E94F1034B01E5
S11309305C01C260D15059F0C8010E94A60697FF1D
S1130940DDCFC1FD04C0AACF812C912C5401C7FF77
S113095008C0B094A09490948094811C911CA11C14
S1130960B11C2C2FB501A401C7010E94E50381E04D
S1130970DF91CF911F910F91FF90EF90BF90AF90B7
S11309809F908F900895A0E2B0E0E9ECF4E00C941D
S113099003075C01962E7A01F9018E010F5F1F4F48
S11309A0680180E2D8011D928A95E9F7D501139672
S11309B08C9080E090E0612C712C30E061E070E07C
S11309C083FC259183FE21918F01522E211103C0B6
S11309D080E090E092C02E3511F4009751F1432F3E
S11309E050E0481759073CF42D3559F12D3219F4CC
S11309F0772009F103C0772009F46AC0452D469594
S1130A0046954695D601A40FB11D452D47708B011F
S1130A1002C0000F111F4A95E2F7A8015C91452B13
S1130A204C93651459F0561410F45394E7CF5A9428
S1130A30E5CF31E004C07724739401C0712C019692
S1130A40BFCF772019F08E8180628E83311103C06D
S1130A508824839417C0F6019E012F5D3F4F808147
S1130A60809581932E173F07D1F7F2CFE114F1045B
S1130A7029F0D7018C93F70131967F019A94812C48
S1130A809920F9F0C5010E94A60697FD18C0FC0143
S1130A90FF2723E0F595E7952A95E1F7EC0DFD1D79
S1130AA0208130E0AC014770552702C03595279569
S1130AB04A95E2F720FDDACFB5010E94E4068110E1
S1130AC087CFE114F10411F0D7011C92C80115C0BD
S1130AD0422F469546954695D601A40FB11D422F47
S1130AE047708B0102C0000F111F4A95E2F7A8015D
S1130AF05C91452B4C93622EA2CFA096EFE00C9410
S1130B001F07A0E0B0E0E7E8F5E00C9403076C01F0
S1130B10EB015A01FC0117821682512CF601E38085
S1130B20FE01E3FC8591E3FE8191182FEF018823F8
S1130B3009F4EEC090E00E949206892B21F0C601D0
S1130B400E941804EBCF153241F4FE01E3FC159129
S1130B50E3FE1191EF01153281F4C6010E94A6064D
S1130B6097FDD4C0412F50E09C013327241735074B
S1130B70A9F2B6010E94E406CBC01A3239F4E3FCB0
S1130B801591E3FE1191EF0101E001C000E0F12CA9
S1130B9020ED210F2A3080F402606F2D70E080E098
S1130BA090E040E20E94F103F62EFE01E3FC159171
S1130BB0E3FE1191EF01ECCF01FF03C0F11003C07C
S1130BC0A7C0FF24FA94183619F01C3651F010C04F
S1130BD0FE01E3FC1591E3FE1191EF01183641F497
S1130BE008600460FE01E3FC1591E3FE1191EF013E
S1130BF0112309F48DC0612F70E084E590E00E9418
S1130C009B06892B09F484C000FD07C0F501808090
S1130C109180C50102965C0102C0812C912C1E3684
S1130C2051F4F6014681578160E070E0202FC40141
S1130C300E94E50373CF1336A9F401FD02C0FF241B
S1130C40F394C6010E94A60697FD60C08114910426
S1130C5029F0F4018083C40101964C01FA94F11047
S1130C60F0CF50C01B3559F49E01A4016F2DC6016D
S1130C700E94C304EC01892B09F044C03EC0C601A4
S1130C800E94180497FD42C01F3661F128F41436FF
S1130C9039F1193651F128C0133771F0153701F1C4
S1130CA023C08114910429F0F4016082C4010196E7
S1130CB04C01FA94FF2071F0C6010E94A6063C0183
S1130CC097FD08C00E949206892B59F3B601C3010F
S1130CD00E94E40681149104A9F0F401108212C068
S1130CE0006203C0006101C00064202FA4016F2DC5
S1130CF0C6010E943104811105C0F601838180730D
S1130D0029F406C000FD0ACF539408CF552019F0EA
S1130D10852D90E002C08FEF9FEFCDB7DEB7EFE0F7
S1130D200C941F0791110C94FD06803219F0895020
S1130D308550C8F70895FC010590061621F000209F
S1130D40D9F7C00108953197CF010895CF93DF9368
S1130D50EC012B8120FF33C026FF0AC02F7B2B839D
S1130D608E819F8101969F838E838A8190E029C022
S1130D7022FF0FC0E881F9818081082E000C990BB5
S1130D80009719F420622B831AC03196F983E88303
S1130D900EC0EA85FB85099597FF09C02B81019652
S1130DA011F080E201C080E1822B8B8308C02E8188
S1130DB03F812F5F3F4F3F832E83992702C08FEFE0
S1130DC09FEFDF91CF910895FB01238120FF12C093
S1130DD026FD10C08F3F3FEF930761F082832F7D84
S1130DE02064238326813781215031093783268368
S1130DF0992708958FEF9FEF0895992788270895DD
S1130E002F923F924F925F926F927F928F929F9216
S1130E10AF92BF92CF92DF92EF92FF920F931F9304
S1130E20CF93DF93CDB7DEB7CA1BDB0B0FB6F894B5
S1130E30DEBF0FBECDBF09942A88398848885F84F5
S1130E406E847D848C849B84AA84B984C884DF8066
S1130E50EE80FD800C811B81AA81B981CE0FD11D4A
S1130E600FB6F894DEBF0FBECDBFED010895F89420
S1050E70FFCFAE
S1130E7201244750474741002447504747412C2506
S1130E825B5E2C5D2C255B5E2C5D2C255B5E2C5DF4
S1130E922C255B5E2C5D2C255B5E2C5D2C255B5E1C
S1130EA22C5D2C255B5E2C5D2C255B5E2C5D2C253C
S1130EB25B5E2C5D2C255B5E2C5D2C255B5E2C5DC4
S1130EC200244750524D4300244750524D432C2591
S1130ED25B5E2C5D2C255B5E2C5D2C255B5E2C5DA4
S1130EE22C255B5E2C5D2C255B5E2C5D2C255B5ECC
S1130EF22C5D2C255B5E2C5D2C255B5E2C5D2C25EC
S1130F025B5E2C5D2C255B5E2C5D2C255B5E2C5D73
S1130F1200475053206E696A652073706F6A656E6C
S1130F2200555443207672696A656D65005669738B
S1130F32696E61004D00535673004649580042726F
S1130F427A696E61006B6E6F7473004B7574000086
S9030000FC
